:020000040800F2
:100000005051002055030008D9410008BD390008AF
:10001000D541000821080008E5570008000000004D
:100020000000000000000000000000009502000831
:10003000CD0A000800000000F1020008414A000853
:100040006F0300086F0300086F0300086F030008C8
:100050006F0300086F0300086F0300086F030008B8
:10006000CF0A00086F0300086F0300088508000826
:100070006F030008950800086F030008A508000832
:100080006F030008B50800086F0300086F0300083D
:10009000250800086F0300086F0300086F030008BD
:1000A0006F0300086F0300086F0300086F03000868
:1000B000214B00086F0300086F0300086F0300085E
:1000C0006F0300086F0300086F0300086F03000848
:1000D0006F0300086F0300086F0300086F03000838
:1000E0006F0300086F0300086F0300086F03000828
:1000F0006F0300086F0300086F0300086F03000818
:100100006F0300086F030008314B00086F030008FD
:10011000315000086F0300086F0300086F030008E8
:100120006F0300086F0300086F0300086F030008E7
:100130006F0300086F0300086F0300086F030008D7
:100140006F0300086F0300086F0300086F030008C7
:100150006F0300086F0300086F030008D5570008FD
:100160006F0300086F0300086F0300086F030008A7
:100170006F0300086F0300086F0300080000000011
:100180006F0300086F0300086F0300084150000868
:100190006F0300086F0300086F0300086F03000877
:1001A00000000000000000006F03000800F002F8EB
:1001B00000F060F80AA090E8000C82448344AAF1A1
:1001C0000107DA4501D100F055F8AFF2090EBAE89F
:1001D0000F0013F0010F18BFFB1A43F0010318477B
:1001E000C47C0000E47C00000A444FF0000C10F8CE
:1001F000013B13F0070408BF10F8014B1D1108BFA5
:1002000010F8015B641E05D010F8016B641E01F844
:10021000016BF9D113F0080F1EBF10F8014BAD1C94
:100220000C1B09D16D1E58BF01F801CBFAD505E0B2
:1002300014F8016B01F8016B6D1EF9D59142D6D30C
:10024000704700000023002400250026103A28BF34
:1002500078C1FBD8520728BF30C148BF0B60704738
:100260001FB507F09EFD9DE8030000F0D3F91FBD08
:1002700010B510BD00F052FA1146FFF7F1FF06F07D
:1002800061F800F070FA03B4FFF7F2FF03BC00F06E
:10029000A1FA00002C4B19680868B0E8F04F80F311
:1002A0000988BFF36F8F4FF0000080F3118870470B
:1002B0000000000008480068006880F308884FF0DC
:1002C000000080F3148862B661B6BFF34F8FBFF3AE
:1002D0006F8F00DF00BF00BF08ED00E0DFF80C000B
:1002E000016841F470010160704700BF88ED00E0D3
:1002F000EFF30980BFF36F8F134B1A681EF0100FD6
:1003000008BF20ED108A20E9F04F106009B44FF0CB
:10031000500080F31188BFF34F8FBFF36F8F06F04B
:1003200011FF4FF0000080F3118809BC19680868BC
:10033000B0E8F04F1EF0100F08BFB0EC108A80F349
:100340000988BFF36F8F70479C000020EFF3058092
:10035000704700000948804709480047FEE7FEE76C
:10036000FEE7FEE7FEE7FEE7FEE7FEE7FEE7FEE765
:1003700004480549054A064B704700000D4B00082C
:10038000AD010008504B002050510020504D00207E
:10039000504D002070B5064600F020F9056806F1C2
:1003A0000B0020F00704B4429CBF002070BD2B4618
:1003B0006A68BAB11068A04210D304F108018842FB
:1003C0003CBF5068586007D35168101941601168EC
:1003D000091B016058601460101D70BD13465268FF
:1003E000002AE7D12146284600F000F90028DED196
:1003F00070BD53EA020C00F069802DE9F04B4FF01C
:100400000006002B1FBFB3FA83F503FA05F424FAA4
:1004100005F65E4012BF1643B2FA82F502FA05F401
:10042000C5F120051EBF22FA05FC44EA0C04203564
:1004300056EA044C4FEA144418BF641C4FF00008FD
:100440004FF00009904271EB030C39D3002919BF1A
:10045000B1FA81F701FA07F6B0FA80F700FA07F669
:10046000C7F120071EBF20FA07FC46EA0C0620371A
:10047000B6FBF4FCA7EB0507103F07F01F0BCBF111
:1004800020060CFA0BFB2CFA06F644BFB3460026F6
:10049000202FA4BF5E464FF0000B5BEA060C08BF9E
:1004A0004FF0010B19EB0B09ABFB027C48EB060884
:1004B000C01B06FB02CC0BFB03CC71EB0C01C1E7AC
:1004C0000B46024641464846BDE8F08B13B54FF057
:1004D00000004FF00001AFF30080BDE81C40704702
:1004E00010B5203AC0F00B80B1E81850203AA0E8CF
:1004F0001850B1E81850A0E81850BFF4F5AF5FEA03
:10050000027C24BFB1E81850A0E8185044BF18C9B5
:1005100018C0BDE810405FEA827C24BF51F8043B5C
:1005200040F8043B08BF7047D20728BF31F8023BB0
:1005300048BF11F8012B28BF20F8023B48BF00F844
:10054000012B70474FF000020429C0F0128010F018
:10055000030C00F01B80CCF1040CBCF1020F18BF9F
:1005600000F8012BA8BF20F8022BA1EB0C0100F032
:100570000DB85FEAC17C24BF00F8012B00F8012B05
:1005800048BF00F8012B70474FF0000200B513463A
:1005900094469646203922BFA0E80C50A0E80C50A3
:1005A000B1F12001BFF4F7AF090728BFA0E80C5054
:1005B00048BF0CC05DF804EB890028BF40F8042B4D
:1005C00008BF704748BF20F8022B11F0804F18BFBA
:1005D00000F8012B7047704770477047004870471C
:1005E000F44A0020704770477047704738B504469A
:1005F0000A4600206946AFF30080002808BF38BDD6
:1006000002460099204600F067F8012038BD01201D
:1006100000F07CB8F8B5AFF30080054600200C462A
:10062000102000BF0646A819A0420DD932466946DF
:100630000020AFF30080070008BF00F067F80098C3
:10064000A04218BF0546C419FFF7C8FF056007465A
:10065000F01D20F007004619284600F00AF8B442C1
:1006600008BFF8BDA21B31463868BDE8F84000F06D
:1006700033B800210160C0E90110704710207047B5
:1006800070B50446051FFFF7A9FF0068002C14BFD2
:10069000446870BD002C18BFAC423CBF2046646863
:1006A000F8D301680A18AA4218BF456003D12A6826
:1006B00005461144016028684119A1421CBF6C60C5
:1006C00070BD6168696021680844286070BD0000E1
:1006D00000487047EC4A0020034640688C460028DA
:1006E00018BF88423CBF03464068F8D318681844D6
:1006F000884207D00CF1030020F00700001D411ACA
:10070000521A0146081D0A60FFF7BABF10B500F083
:1007100039F8BDE8104000F02FB870477546FFF774
:10072000D7FFAE4605006946534620F007008546D0
:1007300018B020B5FFF71CFEBDE820404FF00006C2
:100740004FF000074FF000084FF0000B21F00701B9
:10075000AC46ACE8C009ACE8C009ACE8C009ACE8FC
:10076000C0098D46704710B50446AFF3008020469F
:10077000BDE81040FFF787BD002801D000F02AB87F
:100780007047000010B5012805D0002103A000F03B
:1007900027F8012010BD09A1F8E70000534947528E
:1007A000544D454D3A204F7574206F662068656141
:1007B00070206D656D6F7279000000003A20486509
:1007C0006170206D656D6F727920636F72727570E4
:1007D0007465640001491820ABBEFEE726000200E4
:1007E00070B505460C460A2000E06D1C00F011F8BB
:1007F00035B128780028F8D102E0641C00F009F82F
:1008000014B120780028F8D1BDE870400A20AFF379
:10081000008008B569468DF800000320ABBE08BD16
:1008200000BFFEE710B5024800F06FFB10BD0000EE
:10083000F8050020F8B507460C4615461E464FF44D
:1008400000700D49086000208860C86008200861B9
:10085000380A0A4908704F70200A8870CC70280A3C
:1008600008714D71300A8871CE716B460A46024993
:10087000034800F047F9F8BD580A00202C0000207A
:10088000F805002010B5024800F0BCFE10BD0000C5
:10089000C809002010B5024800F0B4FE10BD0000E9
:1008A000A808002010B5024800F0ACFE10BD000002
:1008B0000809002010B5024800F0A4FE10BD000099
:1008C000680900200146087810381823B0FBF3F2BD
:1008D0000848805CC865032A05D908686FF30900D9
:1008E000001D886503E008686FF309008865886D5E
:1008F00070470000447E0008014600208A6A8B6928
:10090000CBB932B1012A0DD0022A03D0032A10D16B
:100910000EE000BFCB6A03F08073B3F1807F00D19B
:10092000012007E0CB6AB3F1C07F00D1012001E0D4
:1009300000E000BF34E08B69B3F5005F1AD132B13B
:10094000012A07D0022A03D0032A11D10AE000BFEE
:1009500001200EE0CB6A03F08073B3F1807F00D1F9
:10096000012006E0CB6AB3F1C07F00D1012000E096
:1009700000BF15E032B1012A05D0022A04D0032AB3
:100980000CD103E000BF00BF012008E0CB6A03F0F8
:100990008073B3F1807F00D1012000E000BF00BF71
:1009A000704730B50468246824F4802405682C60FE
:1009B000046863608468402C04D10468A260046801
:1009C000E16003E00468A1600468E26030BD0000FB
:1009D00070B504460D462A462146024802F09EFFA5
:1009E00070BD00001808002008B508484068009055
:1009F000074900980968884204D206480068401CEC
:100A00000449086002490098086008BD001000E031
:100A1000700300206C03002010B52DED028B82B016
:100A200004460E484068019020680199081A00EEBB
:100A3000100AF8EE400A0A4890ED000AB8EE400AA3
:100A400080EE801AB0EE418A01982060FFF7CCFF5B
:100A5000B0EE480A02B0BDEC028B10BD001000E001
:100A6000600300201249096841F08071104A11604A
:100A70000021104A51601146096841F001011160DE
:100A80000D4941430D4A1160114609684FF47A72CD
:100A9000B1FBF2F10A4A116008490968064AB1FB44
:100AA000F2F1084A11600021074A11607047000006
:100AB000FCED00E0001000E040420F006003002069
:100AC00064030020680300206C030020704710B509
:100AD000042000F077FF10BD704710B5024692F871
:100AE0002030012B01D0022B06D110684069084349
:100AF00014686061002010BD506A40F4802050628C
:100B00000120F8E7F0B504460D461E4694F8207023
:100B100020688368A86800B900E000BF012F01D0F9
:100B2000022F7DD103F0806030B903F0006018B966
:100B300003F0805000287ED0C3F30161012088407B
:100B40003060A86860B9B5F800C0E86840EA4C5C5D
:100B5000206800F5C07000EB0110C0F800C00FE085
:100B6000D5E901C040EACC00D5F80CC040EA0C0041
:100B7000D4F800C00CF5C07C0CEB011CCCF80000D4
:100B8000D5F810C0206800F5C07000EB0110C0F867
:100B900004C0287D01280ED1206800F5C07000EB4C
:100BA0000110406840F4807C206800F5C07000EBC4
:100BB0000110C0F804C0D079000692F806C040EADF
:100BC0000C4092F805C040EA0C2092F804C040EABC
:100BD0000C00D4F800C00CF5C07C0CEB011CCCF868
:100BE0000C00D078000692F802C040EA0C4092F85F
:100BF00001C040EA0C2092F800C040EA0C00D4F892
:100C000000C00CF5C07C0CEB011CCCF8080020687F
:100C100000F5C07000EB0110006840F0010C01E02D
:100C20000FE008E0206800F5C07000EB0110C0F88C
:100C300000C00020F0BD606A40F400106062012036
:100C4000F8E7606A40F4802060620120F2E700006B
:100C5000F0B504460A46216894F82050012D01D0D1
:100C6000022D7ED1424901F50071086840F0010073
:100C70000860086820F47C5008600868566A40EAFA
:100C800006200860107D00F01F06012000FA06F320
:100C9000C8699843C861A1F50071D069C8B9D1F895
:100CA0000C029843C1F80C02908880B2968940EA01
:100CB000064601F51070576940F83760108880B219
:100CC000168940EA064601F51070576900EBC70027
:100CD0004660D069012819D1D1F80C021843C1F837
:100CE0000C02908880B2168840EA064601F5107022
:100CF000576940F83760908980B2168940EA064605
:100D000001F51070576900EBC7004660906928B97B
:100D1000D1F804029843C1F8040204E0D1F80402B7
:100D20001843C1F80402106928B9D1F81402984395
:100D3000C1F8140204E0D1F814021843C1F81402F7
:100D4000106A012804D1D1F81C021843C1F81C0212
:100D5000D1F8000220F00100C1F800020020F0BD2F
:100D6000FFE7606A40F4802060620120F7E700003E
:100D700000640040704770B5044694F82050012D7F
:100D800001D0022D7DD151B92068C06800F0030068
:100D900080B9606A40F400106062012070BD206874
:100DA000006900F0030028B9606A40F40010606236
:100DB0000120F3E7206800F5D87000EB011000680F
:100DC00000F004009060906840B9206800F5D87089
:100DD00000EB01100068400D106007E0206800F58E
:100DE000D87000EB01100068C0085060206800F562
:100DF000D87000EB0110006800F00200D06020689D
:100E000000F5D87000EB0110406800F00F000828D2
:100E100002D30820106108E0206800F5D87000EBCC
:100E20000110406800F00F001061206800F5D870D4
:100E300000EB0110406800F47F40000A90612068D8
:100E400000F5D87000EB01104068000C506120687C
:100E500000F5D87000EB011080681870206800F56C
:100E6000D87000EB0110806800F47F40000A5870D1
:100E7000206800F5D87000EB0110806800F47F0056
:100E800000E03CE0000C9870206800F5D87000EBA2
:100E900001108068000ED870206800F5D87000EB53
:100EA0000110C0681871206800F5D87000EB0110BF
:100EB000C06800F47F40000A5871206800F5D870BF
:100EC00000EB0110C06800F47F00000C98712068EE
:100ED00000F5D87000EB0110C068000ED87131B970
:100EE0002068C06840F020002668F06005E02068B7
:100EF000006940F020002668306100204EE7606AFB
:100F000040F480206062012048E72DE9F05F04464C
:100F10000025206846692068D0F80490206887681A
:100F20002068D0F80CA02068D0F810B02068D0F865
:100F3000188006F00100002855D007F00100C0B16C
:100F400001202168886007F0020018B1204600F0F7
:100F5000E8FA0EE007F0040010B145F4006508E07F
:100F600007F0080010B145F4805502E0204600F07B
:100F7000D7FA07F48070C8B14FF480702168886098
:100F800007F4007018B1204600F0CDFA0EE007F427
:100F9000806010B145F4005508E007F4006010B11E
:100FA00045F4804502E0204600F0BCFA07F48030AA
:100FB000C8B14FF480302168886007F4003018B160
:100FC000204600F0B2FA0EE007F4802010B145F49C
:100FD000004508E007F4002010B145F4803502E038
:100FE000204600F0A1FA06F0080038B10AF010001F
:100FF00020B145F4007510202168C86006F0040097
:1010000040B10AF0080028B108202168C8602046D5
:1010100000F0A8F906F0020038B12068C06800F0BE
:10102000030010B1204600F09FF906F0400038B1EF
:101030000BF0100020B145F4806510202168086194
:1010400006F0200040B10BF0080028B1082021680C
:101050000861204600F032FA06F0100038B120682E
:10106000006900F0030010B1204600F028FA06F4F1
:10107000003040B109F0100028B11020216848600C
:10108000204600F01DFA06F4803040B109F0080057
:1010900028B1082021684860204600F047FA06F48D
:1010A000004088B309F0040078B306F4807020B1E2
:1010B00008F0010008B145F0010506F4007020B108
:1010C00008F0020008B145F0020506F4806020B186
:1010D00008F0040008B145F0040506F40060A0B172
:1010E00008F0700088B108F07000402817D006DCC6
:1010F00010280BD020280CD0302819D10CE0502813
:1011000010D0602814D110E01DE019E045F008056A
:101110000FE045F010050CE045F0200509E045F032
:10112000400506E045F0800503E045F4807500E0E9
:1011300000BF00BF2068806920F0700021688861CE
:101140000420216848602DB1606A2843606220460F
:10115000FFF710FEBDE8F09F70B504460CB9012002
:1011600070BD94F8200010B9204600F0AFF8206858
:10117000006840F001002168086000F03FFD05466E
:101180000DE000F03BFD401B0A2808D9606A40F4DE
:1011900000306062052084F820000120E0E720682C
:1011A000406800F001000028EBD02068006820F0C3
:1011B00002002168086000F021FD05460DE000F006
:1011C0001DFD401B0A2808D9606A40F400306062A7
:1011D000052084F820000120C2E72068406800F064
:1011E00002000028EBD1207E012806D1206800688B
:1011F00040F080002168086005E02068006820F069
:10120000800021680860607E012806D1206800689F
:1012100040F040002168086005E02068006820F088
:10122000400021680860A07E012806D1206800687F
:1012300040F020002168086005E02068006820F088
:10124000200021680860E07E012806D1206800683F
:1012500020F010002168086005E02068006840F078
:10126000100021680860207F012806D120680068EE
:1012700040F008002168086005E02068006820F060
:10128000080021680860607F012806D12068006896
:1012900040F004002168086005E02068006820F044
:1012A000040021680860D4E9020108432169084369
:1012B000616908436168491E08432168C8610020CC
:1012C0006062012084F82000002049E710B586B054
:1012D0000446142101A8FFF757F91F4920688842E6
:1012E00037D100BF002000901C48006840F000701B
:1012F0001A4908600846006800F00070009000BFBE
:1013000000BF00BF0020009014481038006840F073
:1013100008001249103908600846006800F008000B
:10132000009000BF00BF0320019002200290002027
:101330000390032004900920059001A9084800F0BB
:101340004FFB00220521142000F0ECFC142000F0DB
:10135000D5FC06B010BD00000064004040380240DB
:10136000000C02407047000010B58AB0044601AB83
:1013700003AA00212046FFF7FEFC4C4884427DD1A1
:101380000398A0F2022020B1012803D0022876D1D0
:1013900001E000BF00BF0398401E454908700846A1
:1013A000007800EB4000434931F8200000B240498A
:1013B000097801EB41013F4A02EB810108819DF868
:1013C00005009DF8041040EA01203949097801EB35
:1013D000410122F821009DF807009DF8061040EA1F
:1013E000012000B23249097801EB410102EB810191
:1013F00048809DF809009DF8081040EA012000B2DD
:101400002B49097801EB410102EB810188809DF8AD
:101410000A002749097801EB410102EB810188713B
:101420002348007801281AD110468189B0F91400A8
:10143000081AB0F5805F05DD1F488069401E1E490F
:1014400088610CE01B488189B0F91400081A10F576
:10145000805F04DA18488069401C17498861144885
:10146000007802281DD11348018BB0F92000081A1A
:10147000B0F5805F08DD1048806B01E014E011E0FA
:10148000401E0D4988630CE00A48018BB0F920002A
:10149000081A10F5805F04DA0748806B401C064983
:1014A000886300BF00BF00BF0AB010BDF805002070
:1014B00034000020280A0020E40A0020704770470A
:1014C000704770B5044694F82000012822D102200C
:1014D00084F820002068006820F00100216808607E
:1014E00000F08CFB05460DE000F088FB401B0A284D
:1014F00008D9606A40F400306062052084F820005A
:10150000012070BD2068406800F001000028EBD188
:101510006062F6E7606A40F4002060620120F0E754
:10152000704770477047704770477047704770B595
:101530000446A56D00F062FB064694F835000228CB
:1015400008D08020606500BF002084F8340000BF10
:10155000012070BD2068006820F016002168086036
:101560002068406920F0800021684861206C08B93B
:10157000A06C28B12068006820F00800216808608D
:101580002068006820F001002168086010E000F089
:1015900035FB801B05280BD920206065032084F8CB
:1015A000350000BF002084F8340000BF0320D0E7DE
:1015B0002068006800F001000028E8D194F85C1071
:1015C0003F208840A860012084F8350000BF00203B
:1015D00084F8340000BF00BFBBE7014691F8350036
:1015E000022803D08020486501207047052081F83B
:1015F00035000868006820F001000A6810600020CB
:10160000F3E70000F8B50446002000908C4800681D
:101610004FF41651B0FBF1F7A56D2E6894F85C10ED
:1016200008208840304098B12068006800F004002D
:1016300070B12068006820F004002168086094F808
:101640005C1008208840A860606D40F00100606573
:1016500094F85C1001208840304068B120684069EF
:1016600000F0800040B194F85C1001208840A86030
:10167000606D40F00200606594F85C1004208840C2
:10168000304068B12068006800F0020040B194F872
:101690005C1004208840A860606D40F00400606524
:1016A00094F85C1010208840304078B320680068BF
:1016B00000F0080050B394F85C1010208840A86037
:1016C0002068006800F4802080B12068006800F481
:1016D000002028B9206CC8B12046216C884715E04D
:1016E000A06C98B12046A16C88470FE02068006884
:1016F00000F4807028B92068006820F00800216894
:101700000860206C10B12046216C884794F85C106A
:10171000202088403040002865D02068006800F014
:10172000100000285FD094F85C1020208840A8604A
:1017300094F83500052828D12068006820F01600AC
:10174000216808602068406920F0800021684861B5
:10175000206C08B9A06C28B12068006820F008004F
:101760002168086094F85C103F208840A860012040
:1017700084F8350000BF002084F8340000BF206DDD
:1017800010B12046216D8847F8BD2068006800F43C
:10179000802080B12068006800F4002028B9606CC7
:1017A00010B12046616C88471DE0E06BD8B120463F
:1017B000E16B884717E02068006800F4807068B922
:1017C0002068006820F0100021680860012084F87B
:1017D000350000BF002084F8340000BFE06B10B17A
:1017E0002046E16B8847606D38B3606D00F0010002
:1017F000F0B1052084F835002068006820F0010071
:101800002168086000BF0098401C0090B84200D9D1
:1018100005E02068006800F001000028F3D100BF57
:10182000012084F8350000BF002084F8340000BF98
:10183000E06C10B12046E16C884700BFA4E70000CF
:10184000280000202DE9F0410446002500F0D6F9DB
:10185000074614B90120BDE8F081606A00B100BFFD
:10186000022084F8350000BF002084F8340000BF57
:101870002068006820F00100216808600AE000F09C
:10188000BDF9C01B052805D920206065032084F818
:101890003500E0E72068006800F001000028EED184
:1018A0002068056821480540D4E901010843E16842
:1018B00008432169084361690843A1690843E16954
:1018C0000843216A08430543606A042803D1D4E928
:1018D0000B0108430543206805602068456925F031
:1018E0000705606A0543606A04280DD1A06A0543B4
:1018F000E06A48B12046FEF7FFFF28B1402060654E
:10190000012084F83500A6E7206845612046FEF7EF
:10191000D9FF064694F85C103F208840B060002054
:101920006065012084F83500002094E73F8010F0C6
:101930002DE9F04704460D4616461F464FF00008B5
:10194000D4F8589000BF94F83400012802D1022046
:10195000BDE8F087012084F8340000BF94F835001A
:10196000012825D1022084F83500002060653B461F
:10197000324629462046FFF714F894F85C103F20C1
:101980008840C9F808002068006840F01600216807
:101990000860206C28B12068006840F008002168C9
:1019A00008602068006840F001002168086006E0D7
:1019B00000BF002084F8340000BF4FF0020840460A
:1019C000C6E7704710B5044604480068204020B1BF
:1019D000024804602046FFF7F4FF10BD143C0140AC
:1019E000F8B502460B460025002400200021E0E067
:1019F000012606FA01F51E6806EA0504AC4274D118
:101A00001E7906F00306012E04D01E7906F00306A7
:101A1000022E13D190684F000326BE40B0434F0002
:101A2000DE68BE4030439060506801268E40B0436F
:101A30001E79C6F300168E40304350601E7906F0C2
:101A40000306032E09D0D0684F000326BE40B043E2
:101A50004F009E68BE403043D0601E7906F00306FA
:101A6000022E13D1CF0802F1200656F827004E07A8
:101A7000F70E0F26BE40B0434F07FF0E1E69BE4053
:101A80003043CF0802F1200646F8270010684F00C7
:101A90000326BE40B0431E7906F003064F00BE4049
:101AA000304310605E6806F44036002E1DD000BF43
:101AB00000260096414E366846F480463F4F3E6011
:101AC0003E46366806F48046009600BF00BF3C4E96
:101AD0008F0856F827008E07370F0F26BE40B043F9
:101AE000384EB24202D100262EE061E0364EB242BC
:101AF00001D1012628E0354EB24201D1022623E071
:101B0000334EB24201D103261EE0324EB24201D121
:101B1000042619E0304EB24201D1052614E02F4EC2
:101B2000B24201D106260FE02D4EB24201D1072666
:101B30000AE02C4EB24201D1082605E02A4EB242FC
:101B400001D1092600E00A268F073F0FBE4030432F
:101B50001B4E8F0846F82700244E3068A0435E686D
:101B600006F4801606B12043204E3060361D3068E2
:101B7000A0435E6806F4001606B120431B4E361DD6
:101B800030601A4E361F3068A0435E6806F4003697
:101B900006B12043154E361F3060361F3068A04313
:101BA0005E6806F4803606B12043104E083E306071
:101BB000491C1029FFF41CAFF8BD00004438024056
:101BC00008380140000002400004024000080240C2
:101BD000000C0240001002400014024000180240B5
:101BE000001C02400020024000240240083C01404A
:101BF0000AB1816101E00B0483617047014800680C
:101C0000704700001C000020034800680349097861
:101C100008440149086070471C000020240000208F
:101C200010B50D48006840F400700B490860084684
:101C3000006840F4806008600846006840F48070E6
:101C40000860032000F0ACF80F2000F007F800F067
:101C50002BF8002010BD0000003C024070B5044687
:101C60000E4800784FF47A71B1FBF0F00C49096826
:101C7000B1FBF0F5284600F035FC08B1012070BD3D
:101C8000102C07D200222146501E00F04BF80548C8
:101C9000046001E00120F2E70020F0E724000020CA
:101CA000280000202000002008B500BF0020009080
:101CB0001148006840F480400F49086008460068F9
:101CC00000F48040009000BF00BF00BF00200090E3
:101CD000081F006840F08050091F0860084600682F
:101CE00000F08050009000BF00BF00220F21901E26
:101CF00000F018F808BD00004438024001460846CC
:101D000000280DDB00BF00BF00F01F0301229A4036
:101D100043099B0003F1E023C3F8002100BF00BF8B
:101D200000BF70472DE9F05F80460D46164600273C
:101D300003F05AFD074639462A46334601F00700AC
:101D4000C0F1070ABAF1040F02D94FF0040A01E00A
:101D5000C0F1070AD14600F1040ABAF1070F02D216
:101D60004FF0000A01E0A0F1030AD4464FF0010A47
:101D70000AFA09FAAAF1010A0AEA020A0AFA0CFAAC
:101D80004FF0010B0BFA0CFBABF1010B0BEA030B51
:101D90004AEA0B042146404603F02EFDBDE8F09FC1
:101DA00000BF00F00702064B19684FF6FF03194009
:101DB000044B0B4343EA0221014B196000BF7047FB
:101DC0000CED00E00000FA0570B504460D460CB9B4
:101DD000012070BD5848006800F00F00A84209D2E9
:101DE00055490D700846006800F00F00A84201D068
:101DF0000120EEE7207800F0020002281DD12078B3
:101E000000F00400042805D14C48006840F4E0507C
:101E10004A490860207800F00800082805D14748A2
:101E2000006840F46040454908604448006820F07C
:101E3000F000A168084341490860207800F00100E3
:101E4000A8B36068012807D13C4808380068C0F38F
:101E50004040B8B90120BCE76068022802D0606841
:101E6000032807D1354808380068C0F3406048B9F6
:101E70000120AEE7314808380068C0F3400008B9D7
:101E80000120A6E72D48006820F0030061680843A0
:101E90002A490860FFF7B2FE064609E0FFF7AEFEEA
:101EA000801B41F28831884202D9032091E707E084
:101EB0002248006800F00C006168B0EB810FEDD1A2
:101EC0001D48006800F00F00A84209D91A490D709A
:101ED0000846006800F00F00A84201D0012078E712
:101EE000207800F00400042807D11448006820F48A
:101EF000E050E168084311490860207800F00800CC
:101F0000082808D10D48006820F46040216940EAA3
:101F1000C1000A49086000F03FF808490968C1F3A8
:101F20000311074A515CC84006490860064800682A
:101F3000FFF794FE00204CE7003C024008380240C6
:101F40004C7E000828000020200000200148006886
:101F5000704700002800002000B5FFF7F7FF044994
:101F60000968C1F38221034A515CC84000BD0000EA
:101F7000083802405C7E000800B5FFF7E7FF04491F
:101F80000968C1F34231034A515CC84000BD0000FA
:101F9000083802405C7E00082DE9F0470024002547
:101FA0000026A1462548006800F00C0020B1042856
:101FB00005D008283AD105E0DFF8849039E0DFF851
:101FC000849036E01D48001F006800F03F041B4865
:101FD000001F006800F4800078B11A481749091FF3
:101FE0000968C1F38811A0FB017001462246002355
:101FF0003846FEF7FEF905460EE011480F49091F65
:102000000968C1F38811A0FB017001462246002334
:102010003846FEF7EEF905460848001F0068C0F391
:102020000140401C4600B5FBF6F902E0DFF81090D5
:1020300000BF00BF4846BDE8F087000008380240F6
:102040000024F400001BB700F8B504460CB90120C9
:10205000F8BD207800F00100002874D0F94800682D
:1020600000F00C0004280DD0F648006800F00C00C9
:10207000082813D1F348001F006800F48000B0F571
:10208000800F0BD1EF4808380068C0F340400028AB
:1020900059D06068002856D10120D9E700BF606898
:1020A000B0F5803F08D1E7480838006840F4803038
:1020B000E449083908601EE06068B0F5A02F0DD132
:1020C000E0480838006840F48020DE49083908609C
:1020D0000846006840F4803008600CE0D9480838B1
:1020E000006820F48030D749083908600846006845
:1020F00020F48020086000BF606890B1FFF77EFD8B
:10210000054606E0FFF77AFD401B642801D903204D
:102110009EE7CC4808380068C0F340400028F1D062
:1021200011E0FFF76BFD054606E0FFF767FD401B7A
:10213000642801D903208BE7C24808380068C0F33F
:1021400040400028F1D1207800F0020002285FD141
:10215000BC48006800F00C0058B1BA48006800F0B4
:102160000C0008281CD1B748001F006800F480004C
:10217000B0B9B44808380068C0F3400020B1E06846
:10218000012801D0012063E7AE480838006820F03C
:10219000F800216940EAC100AA490839086037E01F
:1021A000E06800B30120A8490860FFF727FD054655
:1021B00006E0FFF723FD401B022801D9032047E773
:1021C000A04808380068C0F340000028F1D09D48BE
:1021D0000838006820F0F800216940EAC1009949F8
:1021E0000839086014E0002097490860FFF706FDF1
:1021F000054606E0FFF702FD401B022801D9032037
:1022000026E7904808380068C0F340000028F1D164
:10221000207800F0080008282CD16069A8B10120BE
:102220008A490860FFF7EAFC054606E0FFF7E6FC8E
:10223000401B022801D903200AE782486C3000685D
:10224000C0F340000028F1D014E000207F4908606E
:10225000FFF7D4FC054606E0FFF7D0FC401B022840
:1022600001D90320F4E677486C300068C0F34000E1
:102270000028F1D1207800F00400042870D1002754
:1022800070483830006800F0805090B900BF0020DE
:1022900000906C483830006840F08050694938310F
:1022A00008600846006800F08050009000BF00BF42
:1022B00001276748006800F48070B0B9644800687E
:1022C00040F4807062490860FFF798FC054606E01C
:1022D000FFF794FC401B022801D90320B8E65C48B4
:1022E000006800F480700028F2D000BFA0680128C8
:1022F00008D154486830006840F001005149683105
:1023000008601DE0A06805280DD14E4868300068BF
:1023100040F004004B49683108600846006840F00E
:10232000010008600CE047486830006820F00100B8
:102330004449683108600846006820F004000860DD
:1023400000BFA068A8B1FFF759FC054609E0FFF7F8
:1023500055FC401B41F28831884202D9032077E6C0
:1023600026E0384868300068C0F340000028EED00E
:1023700013E0FFF743FC054608E0FFF73FFC401B76
:1023800041F28831884201D9032061E62D48683046
:102390000068C0F340000028EFD1012F07D1294881
:1023A0003830006820F0805026493831086000BF7E
:1023B000A069002845D02348006800F00C000828D8
:1023C0005DD0A069022845D100201F490866FFF7AB
:1023D00015FC054606E0FFF711FC401B022801D959
:1023E000032035E6174808380068C0F3406000282D
:1023F000F1D1D4E907010843616A40EA8111012261
:10240000A06AC2EB500041EA00412C20005D41EA85
:1024100000600C49091F086001200B490866FFF79E
:10242000EDFB054606E0FFF7E9FB401B022801D95A
:1024300003200DE6034808380068C0F34060002818
:10244000F1D049E00838024000004742800E474280
:1024500000700040002021490866FFF7CFFB0546C9
:1024600006E0FFF7CBFB401B022801D90320EFE574
:102470001B480068C0F340600028F2D12CE0A0693E
:10248000012800D1E4E51648001D0668A06901286E
:1024900020D006F48001E06981421BD106F03F01A3
:1024A000206A814216D147F6C0703040616AB0EBB5
:1024B000811F0FD106F440310122A06AC2EB500007
:1024C000B1EB004F06D106F070612C20005DB1EB3E
:1024D000006F01D00120BBE50020B9E500004742B4
:1024E0000038024070B504462546681EB0F1807F72
:1024F00001D301200FE0681E4FF0E02148610F2159
:102500004FF0FF3003F078F900204FF0E0218861B0
:1025100007200861002070BD7047704710B5034662
:10252000002200BF93F83C00012801D1022010BD19
:10253000012083F83C0000BF22F0FF00CC6840EA95
:10254000040222F440708C6840EA040222F48060A5
:102550004C6840EA040222F400600C6840EA04027D
:1025600022F480500C6940EA040222F400504C69C5
:1025700040EA040222F48040CC6940EA0402186870
:10258000426400BF002083F83C0000BF00BFCEE7DC
:1025900030B502460B4600BF92F83C00012801D13D
:1025A000022030BD012082F83C0000BF022082F8EA
:1025B0003D00106844681068816824F07004186851
:1025C000044310684460184D1068A8421BD010687E
:1025D000B0F1804F17D0154D1068A84213D0144D9C
:1025E0001068A8420FD0134D1068A8420BD0124DAE
:1025F0001068A84207D0114D1068A84203D0104DB2
:102600001068A84205D121F0800158680143106884
:102610008160012082F83D0000BF002082F83C006C
:1026200000BF00BFBDE70000000001400004004003
:1026300000080040000C0040000401400040014040
:102640000018004010B504460CB9012010BD94F8E4
:102650003D0028B9002084F83C00204600F026F810
:10266000022084F83D00211D206802F0A3FA012019
:1026700084F8460000BF84F83E0001213F20015548
:10268000402001554120015500BF00BF012084F8C2
:10269000420043200155442001554520015500BF0B
:1026A000012084F83D000020D0E7000010B586B07E
:1026B0000446142101A8FDF767FF2068B0F1804FA0
:1026C00037D100BF002000907148006840F0010041
:1026D0006F4908600846006800F00100009000BFE4
:1026E00000BF00BF0020009069481038006840F02B
:1026F00001006749103908600846006800F00100D1
:10270000009000BF00BF0420019002200290002032
:10271000039004900120059001A95E48FFF760F93D
:10272000002205211C20FFF7FDFA1C20FFF7E6FA26
:10273000ACE05949206888420FD100BF00200090CA
:102740005348006840F0020051490860084600689C
:1027500000F00200009000BF98E0504920688842D5
:102760000FD100BF002000904948006840F00400ED
:10277000474908600846006800F00400009000BF68
:1027800084E047492068884254D100BF002000906F
:102790003F48006840F008003D490860084600686E
:1027A00000F00800009000BF00BF00BF00200090B4
:1027B00037481038006840F4807035491039086097
:1027C0000846006800F48070009000BF00BF00BFA2
:1027D000002000900846006840F08000086008462D
:1027E000006800F08000009000BF00BF0120019051
:1027F000022002900020039004900220059001A97D
:102800002848FFF7EDF84FF4805001900220029025
:102810000020039004900220059001A92248FFF7B0
:10282000DFF8002205213220FFF77CFA3220FFF783
:1028300065FA2BE01D492068884211D100BF0020B5
:1028400000901348001D006840F002001049091D67
:1028500008600846006800F00200009000BF15E024
:1028600013492068884211D100BF00200090084819
:10287000001D006840F480300549091D08600846C5
:10288000006800F48030009000BF00BF06B010BDAB
:1028900040380240000002400004004000080040B0
:1028A000000C004000200240001C024000040140D7
:1028B000004001402DE9F04104460D46002700BFCD
:1028C00094F83C00012802D10220BDE8F0810120EB
:1028D00084F83C0000BF022084F83D002068866830
:1028E00026F0770626F47F46206886602868502800
:1028F00033D00CDC202850D004DC00284BD010282A
:1029000051D149E0302849D040284CD139E06028E5
:102910002DD0702807D0B0F5805F03D0B0F5005FF0
:1029200041D10DE041E0D5E902136A68206802F068
:10293000C6F92068866846F077062068866034E02D
:10294000D5E902136A68206802F0B9F92068806846
:1029500040F480402168886027E0EA686968206860
:1029600002F09EFA5021206802F0B4F91DE0EA68F6
:102970006968206802F0F0FA6021206802F0AAF984
:1029800013E0EA686968206802F08AFA402120684A
:1029900002F0A0F909E000BF00BF00BF296820686D
:1029A00002F098F901E0012700BF00BF012084F880
:1029B0003D0000BF002084F83C0000BF384684E79B
:1029C00070472DE9F04104460D461646002700BF2A
:1029D00094F83C00012802D10220BDE8F0810120DA
:1029E00084F83C0000BF96B9EB68D5E90012206876
:1029F00002F06AFA2068806920F00C002168886182
:102A000020688069A96808432168886141E0042E34
:102A100013D1EB68D5E90012206802F0B1FA206802
:102A2000806920F440602168886120688069A96815
:102A300040EA0120216888612BE0082E12D1EB6862
:102A4000D5E90012206802F0B8FA2068C06920F0C9
:102A50000C002168C8612068C069A9680843216822
:102A6000C86116E00C2E13D1EB68D5E9001220687E
:102A700002F0BFFA2068C06920F440602168C86194
:102A80002068C069A96840EA01202168C86100E0A7
:102A9000012700BF002084F83C0000BF38469CE7B7
:102AA00010B504460CB9012010BD94F83D0028B9BA
:102AB000002084F83C00204600F025F8022084F82D
:102AC0003D00211D206802F075F8012084F84600C1
:102AD00000BF84F83E0001213F20015540200155F0
:102AE0004120015500BF00BF012084F8420043206F
:102AF0000155442001554520015500BF012084F8AF
:102B00003D000020D0E770472DE9F04304460D4614
:102B1000002615B994F83E000BE0042D02D13F20A9
:102B2000005D06E0082D02D14020005D01E041205B
:102B3000005D804615B994F842000BE0042D02D1E7
:102B40004320005D06E0082D02D14420005D01E035
:102B50004520005D8146B8F1010F02D1B9F1010FA6
:102B600002D00120BDE8F0831DB9022084F83E00A8
:102B70000EE0042D03D102213F20015508E0082D6D
:102B800003D102214020015502E0022141200155DC
:102B90001DB9022084F842000EE0042D03D1022169
:102BA0004320015508E0082D03D10221442001559E
:102BB00002E002214520015535B1042D0BD0082D2E
:102BC00010D00C2D1CD114E02068C06840F0020029
:102BD0002168C86016E02068C06840F004002168E1
:102BE000C8600FE02068C06840F008002168C86035
:102BF00008E02068C06840F010002168C86001E06B
:102C0000012600BF00BF86BB01222946206802F0D2
:102C100045F81A49206888421BD02068B0F1804FDF
:102C200017D017492068884213D016492068884277
:102C30000FD01549206888420BD01449206888427B
:102C400007D013492068884203D01249206888427F
:102C50000CD12068806800F00707062F0CD0206890
:102C6000006840F001002168086005E02068006805
:102C700040F0010021680860304673E70000014021
:102C80000004004000080040000C00400004014027
:102C9000004001400018004070B504460D46002673
:102CA00035B1042D0BD0082D10D00C2D1CD114E003
:102CB0002068C06820F002002168C86016E0206823
:102CC000C06820F004002168C8600FE02068C06878
:102CD00020F008002168C86008E02068C06820F083
:102CE00010002168C86001E0012600BF00BF002E6F
:102CF0003FD100222946206801F0D0FF00BF2068A4
:102D0000006A41F21111084050B92068006A891028
:102D1000084028B92068006820F001002168086098
:102D200000BF1DB9012084F83E000EE0042D03D140
:102D300001213F20015508E0082D03D10121402049
:102D4000015502E00121412001551DB9012084F8FF
:102D500042000EE0042D03D101214320015508E07B
:102D6000082D03D101214420015502E00121452015
:102D70000155304670BD70B504462068C5682068AE
:102D8000066906F00200022819D105F002000228A7
:102D900015D1401F216808610120207720688069D3
:102DA00000F0030018B12046FFF70AFE05E02046B8
:102DB00000F03CF9204600F0F0F90020207706F002
:102DC0000400042819D105F00400042815D1C043DB
:102DD00021680861022020772068806900F4407033
:102DE00018B12046FFF7ECFD05E0204600F01EF983
:102DF000204600F0D2F90020207706F008000828CD
:102E000019D105F00800082815D1C04321680861D0
:102E1000042020772068C06900F0030018B1204624
:102E2000FFF7CEFD05E0204600F000F9204600F057
:102E3000B4F90020207706F01000102819D105F011
:102E40001000102815D1C0432168086108202077A0
:102E50002068C06900F4407018B12046FFF7B0FD4B
:102E600005E0204600F0E2F8204600F096F9002048
:102E7000207706F0010048B105F0010030B16FF095
:102E8000010021680861204600F00EFA06F080007B
:102E9000802809D105F08000802805D1C043216831
:102EA00008612046FFF738FB06F04000402809D1B2
:102EB00005F04000402805D1C04321680861204644
:102EC00000F00CFA06F02000202809D105F02000BF
:102ED000202805D1C043216808612046FFF71DFB6B
:102EE00070BD000010B586B00446142101A8FDF79E
:102EF0004BFB4549206888421DD100BF002000904F
:102F00004248006840F002004049086008460068F6
:102F100000F00200009000BF00BF012001900220DD
:102F200002900020039004900220059001A93848E7
:102F3000FEF756FD65E03749206888421ED100BF84
:102F4000002000903148006840F008002F490860D8
:102F50000846006800F00800009000BF00BF4FF472
:102F60007040019002200290002003900490022003
:102F7000059001A92848FEF733FD42E02749206863
:102F800088421DD100BF002000902048006840F416
:102F900080701E4908600846006800F48070009048
:102FA00000BF00BFE42001900220029000200390A7
:102FB00004900320059001A91948FEF711FD20E0B7
:102FC0001849206888421CD100BF002000900F489B
:102FD000006840F010000D4908600846006800F0E5
:102FE0001000009000BF00BF40200190022002901E
:102FF0000020039004900320059001A90A48FEF7E1
:10300000EFFC06B010BD0000000400403038024064
:103010000004024000080040000C0240000401408F
:1030200000200240004001400010024070472DE99E
:10303000F04104460D461646002700BF94F83C00B8
:10304000012802D10220BDE8F081012084F83C0073
:1030500000BF36B1042E1BD0082E31D00C2E5ED10D
:1030600045E02946206801F03FFE2068806940F075
:103070000800216888612068806920F004002168C8
:10308000886120688069296908432168886148E06F
:103090002946206801F060FE2068806940F40060E5
:1030A000216888612068806920F4806021688861D7
:1030B00020688069296940EA01202168886130E040
:1030C0002946206801F086FE2068C06940F00800AB
:1030D0002168C8612068C06920F004002168C861C7
:1030E0002068C069296908432168C86119E0294638
:1030F000206801F0ABFE2068C06940F400602168E0
:10310000C8612068C06920F480602168C8612068B7
:10311000C069296940EA01202168C86101E00127EE
:1031200000BF00BF00BF002084F83C0000BF38464D
:1031300089E710B504460CB9012010BD94F83D0094
:1031400028B9002084F83C00204600F025F8022031
:1031500084F83D00211D206801F02CFD012084F839
:10316000460000BF84F83E0001213F200155402069
:1031700001554120015500BF00BF012084F84200E5
:1031800043200155442001554520015500BF012031
:1031900084F83D000020D0E77047704770B50446C2
:1031A0000D4615B994F83E000BE0042D02D13F20E6
:1031B000005D06E0082D02D14020005D01E04120C5
:1031C000005D012801D0012070BD1DB9022084F8E6
:1031D0003E000EE0042D03D102213F20015508E0FE
:1031E000082D03D102214020015502E00221412097
:1031F000015501222946206801F050FD234920682D
:10320000884203D022492068884201D1012000E091
:10321000002028B12068406C40F4004021684864D8
:103220001A49206888421BD02068B0F1804F17D01F
:1032300018492068884213D01749206888420FD067
:103240001649206888420BD011492068884207D06F
:1032500013492068884203D01249206888420CD163
:103260002068806800F00706062E0CD020680068F1
:1032700040F001002168086005E02068006840F027
:1032800001002168086000209EE700000000014066
:10329000000401400004004000080040000C004011
:1032A000004001400018004070470246002031B144
:1032B000042907D0082908D00C290CD108E013688C
:1032C000586B09E01368986B06E01368D86B03E04D
:1032D0001368186C00E000BF00BF7047704770476C
:1032E000704700002DE9F84F044620680568206803
:1032F000C668206847694FF00009CA4605F00F0903
:10330000B9F1000F0AD105F0200038B106F0200015
:1033100020B1204602F036F8BDE8F88FB9F1000F71
:103320007CD007F0010018B906F49070002875D021
:1033300005F0010030B106F4807018B1606C40F007
:103340000100606405F0040030B107F0010018B11D
:10335000606C40F00200606405F0020030B107F0DC
:10336000010018B1606C40F00400606405F00800D2
:1033700048B106F0200010B907F0010018B1606CE8
:1033800040F008006064606C002846D005F0200022
:1033900028B106F0200010B1204601F0F3FF2068AC
:1033A0004069C0F3801A606C00F0080010B9BAF1EF
:1033B000000F2DD0204601F08CFF2068406900F0FE
:1033C0004000402820D100BF00BF2168143151E8DF
:1033D000001F21F040002168143141E80002002A5A
:1033E000F3D100BFE06B50B17748E16B0865E06B4B
:1033F000FEF7F3F888B1E06B016D88470DE02046D9
:10340000FFF76EFF09E009E02046FFF769FF04E0DF
:103410002046FFF765FF002060647DE7206B0128F0
:1034200078D105F01000002874D006F010000028B4
:10343000FAD000BF0020009020680068009020684B
:103440004068009000BF00BF2068406900F0400065
:10345000402860D1E06B006840681FFA80F8B8F13E
:10346000000F56D0A08D404553DDA4F82E80E06BB0
:10347000C069B0F5807F43D000BF00BF21680C3128
:1034800051E8001F21F4807021680C3141E80002EE
:10349000002AF3D100BF00BF00BF2168143151E8FA
:1034A000001F21F001002168143141E80002002AC8
:1034B000F3D100BF00BF00BF2168143151E8001FE5
:1034C00021F040002168143141E80002002AF3D1C4
:1034D00000BF202084F842000020206300BF00BF0E
:1034E00021680C3151E8001F21F0100021680C31D7
:1034F00041E80002002AF3D100BFE06BFEF717F8A5
:1035000002206063A08DE28D801A81B22046FFF711
:10351000E6FE01E742E0A08DE18D401A1FFA80F837
:10352000E08DD0B3B8F1000F37D000BF00BF2168E5
:103530000C3151E8001F21F4907021680C3141E8F2
:103540000002002AF3D100BF00BF00BF2168143180
:1035500051E8001F21F001002168143141E8000208
:10356000002AF3D100BF202084F84200002020630D
:1035700000BF00BF21680C3151E8001F21F010008E
:1035800021680C3141E80002002AF3D100BF02207B
:10359000606341462046FFF7A2FEBDE605F08000CD
:1035A00030B106F0800018B1204602F0E3F8B3E62F
:1035B00005F0400030B106F0400018B1204601F09F
:1035C000BEFEA9E600BFA7E63151000810B50446CB
:1035D0000CB9012010BDA06900B100E000BF94F853
:1035E000410028B9002084F84000204600F02AF865
:1035F000242084F841002068C06820F4005021682D
:10360000C860204601F03CFF2068006920F490402B
:10361000216808612068406920F02A00216848611B
:103620002068C06840F400502168C86000206064D1
:10363000202084F8410084F842000020606300BF2D
:10364000C8E7000010B586B00446142101A8FCF7B5
:103650009BFF9A492068884274D100BF00200090E7
:103660009748006840F400209549086008460068C3
:1036700000F40020009000BF00BF00BF00200090B9
:103680008F481038006840F001008D4910390860FB
:103690000846006800F00100009000BF00BF032052
:1036A0000190022002900020039003200490082043
:1036B000059001A98348FEF793F983488349086080
:1036C00040054860002181488160C1604FF48061FD
:1036D0000161002141618161C16101624162FEF7C6
:1036E000B1F808B1FDF7F8F900BF7848E0638463EA
:1036F00000BF75483030764908604FF00060486080
:103700004021734881600021C1604FF480610161F4
:10371000002141618161C16101624162FEF792F85D
:1037200008B1FDF7D9F900BF6948A063846300BF01
:10373000002205213420FEF7F5FA3420FEF7DEFAE8
:10374000B9E0FFE763492068884275D100BF0020D7
:1037500000905B48006840F0004059490860084606
:10376000006800F00040009000BF00BF00BF0020D4
:10377000009053481038006840F01000504910394C
:1037800008600846006800F01000009000BF00BF0D
:103790000320019002200290002003900320049057
:1037A0000820059001A94C48FEF71AF946486030F8
:1037B0004A49086000054860002148488160C160AE
:1037C0004FF480610161002141618161C161016249
:1037D0004162FEF737F808B1FDF77EF900BF3F48B8
:1037E000E063846300BF384830383D4908604FF0DB
:1037F0002060486040213A4881600021C1604FF458
:1038000080610161002141618161C16101624162A8
:10381000FEF718F808B1FDF75FF900BF3048A06364
:10382000846300BF002205215320FEF77BFA53205A
:10383000FEF764FA3FE0FFE72A49206888423AD160
:1038400000BF002000901E48001D006840F02000CE
:103850001B49091D08600846006800F02000009020
:1038600000BF00BF00BF002000901548103800685E
:1038700040F040001249103908600846006800F026
:103880004000009000BF00BF4FF484400190022030
:10389000029000200390032004900820059001A9C5
:1038A0001148FEF79DF8002205214720FEF73AFA5D
:1038B0004720FEF723FA06B010BD0000004C004080
:1038C000403802400000024040600240A80800204A
:1038D00008090020007C0040001002406809002018
:1038E000C8090020001401400018024070B50446C9
:1038F0000D46164694F8420020280BD105B10EB9AA
:10390000012070BD0020206332462946204601F088
:10391000CDFEF6E70220F4E770477047F7B504469E
:10392000154694F84100202836D1019800B10DB910
:103930000120FEBD01982062A584E584002060641A
:10394000212084F841001548A16BC8631448A16B7D
:1039500008641448A16BC8640020A16B086501AE1F
:1039600023681A1D31682B46A06BFDF7E1FF6FF04D
:1039700040002168086000BF00BF2168143151E891
:10398000001F41F080002168143141E80002002A44
:10399000F3D100BF0020CCE70220CAE76D52000837
:1039A000C5520008455100087047704705E000F017
:1039B0002DFF40F2DC5002F024FDF8E700BFFEE7E7
:1039C00010B50E480E4908600320486000210C48DD
:1039D0008160C1604FF4102101614FF40011416119
:1039E0000021017641768176C17601774177FDF736
:1039F000B3FB08B1FDF770F810BD00000064004093
:103A0000F805002008B500BF0020009016480068A7
:103A100040F40010144908600846006800F40010E3
:103A2000009000BF00BF002205210B20FEF77AF9AD
:103A30000B20FEF763F9002205210D20FEF772F935
:103A40000D20FEF75BF9002205210F20FEF76AF931
:103A50000F20FEF753F9002205211120FEF762F92D
:103A60001120FEF74BF908BD3038024000B5A3B075
:103A70001C221E491CA8FCF733FD00211CA802F0E3
:103A8000D1FC1B4908601C2218491C3115A8FCF701
:103A900027FD002115A802F0C5FC164908601C226C
:103AA000124938310EA8FCF71BFD00210EA802F0C8
:103AB000B9FC114908601C220C49543107A8FCF7D5
:103AC0000FFD002107A802F0ADFC0C4908601C2284
:103AD000064970316846FCF703FD0021684602F094
:103AE000A1FC0749086023B000BD0000B87D0008B4
:103AF0001400002000000020040000200C00002022
:103B00001000002000B587B0142102A8FCF73CFD8E
:103B100000BF002001905548006840F01000534954
:103B200008600846006800F01000019000BF00BF68
:103B300000BF002001900846006840F04000086087
:103B40000846006800F04000019000BF00BF00BFC1
:103B5000002001900846006840F001000860084617
:103B6000006800F00100019000BF00BF00BF00200E
:103B700001900846006840F00800086008460068A8
:103B800000F00800019000BF00BF00BF00200190BE
:103B90000846006840F4807008600846006800F439
:103BA0008070019000BF00BF00BF00200190084658
:103BB000006840F0200008600846006800F020001F
:103BC000019000BF00BF00BF0020019008460068C0
:103BD00040F0800008600846006800F08000019016
:103BE00000BF00BF00BF002001900846006840F001
:103BF000020008600846006800F00200019000BF63
:103C000000BF002203211A48FDF7F2FF002208211D
:103C10001848FDF7EDFF0320029001200390049067
:103C20000220059002A91248FDF7DAFE0420029056
:103C30004FF4881003900020049002A90E48FDF76D
:103C4000CFFE0820029001200390002004900590F0
:103C500002A90848FDF7C4FE002205210820FEF74E
:103C600061F80820FEF74AF807B000BD303802407E
:103C700000140240000002400004024000B58BB076
:103C800000200790089009900A90059006900190F6
:103C90000290039004904FF080401E490860A720D6
:103CA000486000211B4881604FF6FF71C160002110
:103CB00001618161FEF7C6FC08B1FCF70DFF4FF40E
:103CC0008050079007A91348FEF7F4FD08B1FCF7F0
:103CD00003FF1048FEF7E4FE08B1FCF7FDFE0020EC
:103CE0000590069005A90B48FEF752FC08B1FCF7B9
:103CF000F3FE002001900120029000200390049028
:103D0000082201A90348FEF75CFE08B1FCF7E4FEB7
:103D10000BB000BD2006002000B58DB0002009903A
:103D20000A900B900C90079008901C216846FCF7B5
:103D30002BFC21482149086040F2473048600021AF
:103D40001E48816040F2CF71C16000210161816134
:103D5000FEF778FC08B1FCF7BFFE4FF480500990E5
:103D600009A91648FEF7A6FD08B1FCF7B5FE1348F1
:103D7000FFF7DFF908B1FCF7AFFE002007900890CD
:103D800007A90E48FEF704FC08B1FCF7A5FE602069
:103D900000904FF4FA6001900020029004900822F5
:103DA00069460648FFF743F908B1FCF795FE03485A
:103DB000FFF798F80DB000BD000400406806002031
:103DC00000B58DB0002009900A900B900C900790E0
:103DD00008901C216846FCF7D7FB2D482D49086048
:103DE00040F24730486000212A48816040F2CF719C
:103DF000C160002101618161FEF724FC08B1FCF77C
:103E00006BFE4FF48050099009A92248FEF752FD3D
:103E100008B1FCF761FE1F48FFF78BF908B1FCF70A
:103E20005BFE00200790089007A91A48FEF7B0FB38
:103E300008B1FCF751FE602000904FF4FA60019049
:103E4000002002900490002269461248FFF7EFF824
:103E500008B1FCF741FE042269460E48FFF7E7F877
:103E600008B1FCF739FE082269460A48FFF7DFF877
:103E700008B1FCF731FE0C2269460648FFF7D7F877
:103E800008B1FCF729FE0348FFF72CF80DB000BD80
:103E900000080040B006002000B58BB0002007905D
:103EA000089009900A900590069001900290039066
:103EB0000490234823490860A72048600021214836
:103EC00081604FF6FF71C160002101618161FEF7E1
:103ED000B9FB08B1FCF700FE4FF48050079007A92A
:103EE0001848FEF7E7FC08B1FCF7F6FD1548FEF7A9
:103EF000D7FD08B1FCF7F0FD00200590069005A95C
:103F00001048FEF745FB08B1FCF7E6FD00200190E4
:103F100001200290002003900490082201A9094882
:103F2000FEF74FFD08B1FCF7D7FD0C2201A90548AB
:103F3000FEF747FD08B1FCF7CFFD0BB000BD000058
:103F4000000C0040F806002000B595B0002011904C
:103F50001290139014900F9010901C2108A8FCF759
:103F600013FB20216846FCF70FFB384838490860EE
:103F700040F28F60486000213548816040F2CF7187
:103F8000C1600021016141618161FEF75BFB08B105
:103F9000FCF7A2FD4FF48050119011A92C48FEF7B8
:103FA00089FC08B1FCF798FD2948FFF7C2F808B171
:103FB000FCF792FD00200F9010900FA92448FEF707
:103FC000E7FA08B1FCF788FD602008904FF4FA602A
:103FD000099000200A900B900C900D900E900022FA
:103FE00008A91B48FFF723F808B1FCF775FD042268
:103FF00008A91748FFF71BF808B1FCF76DFD082268
:1040000008A91348FFF713F808B1FCF765FD0C2267
:1040100008A90F48FFF70BF808B1FCF75DFD002079
:10402000009001900290039004904FF4005005908E
:104030000020079069460648FEF770FA08B1FCF7C1
:104040004BFD0348FEF74EFF15B000BD00040140D4
:104050004007002000B58BB0002007900890099021
:104060000A901C216846FCF78FFA20482049086016
:1040700040F28F60486000211D48816040F2CF719E
:10408000C160002101618161FEF7DCFA08B1FCF733
:1040900023FD4FF48050079007A91548FEF70AFC4E
:1040A00008B1FCF719FD1248FFF743F808B1FCF717
:1040B00013FD602000904FF4FA6001900020029000
:1040C0000490042269460A48FEF7B1FF08B1FCF7E4
:1040D00003FD07480068806920F40060044909680E
:1040E00088610348FEF7FEFE0BB000BD00400140B2
:1040F0008807002010B51148114908604FF4E130DD
:10410000486000210E488160C16001610C2141615D
:1041100000218161C161FFF759FA08B1FCF7DCFCAD
:1041200007480068C06840F0100005490968C86089
:10413000282204490248FFF7D9FB10BD004C00407B
:10414000D0070020700A002010B5114811490860FE
:104150004FF4E130486000210E488160C160016188
:104160000C21416100218161C161FFF72FFA08B183
:10417000FCF7B2FC07480068C06840F01000054931
:104180000968C860282204490248FFF7AFFB10BD48
:10419000007C004018080020700A002010B50B4871
:1041A0000B4908604FF416504860002108488160B0
:1041B000C16001610C21416100218161C161FFF792
:1041C00005FA08B1FCF788FC10BD0000001401409E
:1041D0006008002000BFFEE700BFFEE710B52DED30
:1041E000028B0446B0EE408AF0EE608AD4F80600F6
:1041F00090ED010A8A4880ED000A00201DE054F885
:10420000062F411C02EB810191ED000A8449D1ED9A
:10421000000A30EE600A216801EB800181ED000A9E
:104220006268411C02EB810191ED000AA41F02EBC0
:10423000800181ED000A411C88B22188491E81421B
:10424000DDDCD4F806102088801E01EB800090EDA4
:10425000000A30EE080A2088401E01EB800080ED45
:10426000000AD4F80A102088401E01EB8000C0ED3F
:10427000008AD4F802002188884204D2D4F80200CF
:10428000401CC4F80200102104F11A00FCF75AF98E
:1042900021886288891A88B24AE054F8061F01EB27
:1042A0008001D1ED000A216801EB800191ED001A37
:1042B000616900EE101A00EE810A10EE101A6161B9
:1042C00054F8061901EB8001D1ED000AD4F81E1054
:1042D00000EE101A30EE800A10EE101AC4F81E100C
:1042E000D4F8061001EB8001D1ED000AD4F80A10D1
:1042F00001EB800191ED001AD4F8221000EE101AA3
:1043000000EE810A10EE101AC4F82210D4F80A1038
:1043100001EB8001D1ED000AD4F8261000EE101A4E
:1043200030EE800A10EE101AC4F82610411C88B234
:1043300021888142B1DCD4F8220000EE100A2088E6
:1043400000EE900AF8EE600A20EE200AD4F81E0073
:1043500000EE900AD4F8260001EE100A00EEC10A21
:10436000D4F81A0000EE900A208801EE100AB8EE88
:10437000411A20EE811AD4F81E0000EE900A01EED8
:10438000900A00EEE11AC0EE010A10EE900AC4F89D
:104390000E009FED240A10EE100AC4F816002188C2
:1043A0006288891A88B221E054F8061F01EB800167
:1043B00091ED001AE16800EE101AA16800EE901A63
:1043C00000EE810A616801EB8001D1ED000A30EE58
:1043D000600AF0EEC00A216900EE101A30EE800A81
:1043E00010EE101A2161A41F411C88B2218881425D
:1043F000DADCD4F8160000EE100A208800EE900AED
:10440000B8EE601AC0EE010A10EE900AC4F8160069
:10441000D4F80E0000EE100ABDEC028B10BD0000B7
:104420009C0300200000000070B504460D46A41C4B
:1044300024F8025C00202060A800FBF7ABFF60605E
:10444000A800FBF7A7FFA0609FED0C0A10EE100A72
:10445000E0609FED0A0A10EE100A2061A900606872
:10446000FCF792F8A900A068A41EFCF78DF81021B3
:1044700004F11A00FCF766F870BD000000000000AF
:1044800010B52DED028B0446B0EE408AF0EE608A46
:1044900094F8980000F0800010B1204601F012FE60
:1044A00004F18C00FCF7B8FA10EE100AC4F8900082
:1044B00018EE100A206118EE900A2060206800EEC5
:1044C000100A206900EE900A30EE600A10EE100A21
:1044D000A061D4F8A20018B1D4F8A21020468847F1
:1044E000A06900EE100AB5EEC00AF1EE10FA03DD85
:1044F000A06900EE100A04E0A06900EE100AB1EE17
:10450000400AA06C00EE900AB4EEE00AF1EE10FA58
:104510007EDDD4F8940098BB606800EE100AA069B4
:1045200000EE900A20EE200A10EE100A6062A068E9
:1045300000EE100AA06900EE900A60EE200AD4F89E
:10454000900000EE100A20EE800A10EE100A2063A0
:10455000B4F86000022814DDA06900EE900AD4F8D7
:10456000900000EE100A04F16200FFF737FEE068E9
:1045700000EE900A20EE200A10EE100AE0627FE0C2
:1045800016E0A06900EE100AE06900EE900A70EEF5
:10459000600AE06800EE100A20EE801AD4F890005D
:1045A00000EE100AC1EE000A10EE900AE06267E029
:1045B000606800EE100AD4F89400006800EE900ADB
:1045C00070EE200AA06900EE100A20EE800A10EEBC
:1045D000100A6062A06800EE100AD4F894004068E7
:1045E00000EE900A70EE200AA06900EE100A60EE5C
:1045F000800AD4F8900000EE100A20EE800A10EE37
:10460000100A2063B4F8600002281CDDA06900E0F5
:104610008EE000EE900AD4F8900000EE100A04F14B
:104620006200FFF7DBFDE06800EE900AD4F894002A
:10463000806801EE100A70EE810A20EE200A10EE6A
:10464000100AE0621CE0E06800EE100AD4F8940062
:10465000806800EE900A30EE201AA06900EE100A81
:10466000E06900EE900A30EE600A21EE001AD4F8FC
:10467000900000EE100AC1EE000A10EE900AE0620F
:10468000D4F8A60018B1D4F8A6102046884794F8AC
:10469000980000F0040010B1204601F090FD94F85D
:1046A000980000F0200010B1204601F027FB94F89C
:1046B000980000F0020010B1204601F0C2FB94F80F
:1046C000980000F0400010B1204601F08FFB94F8F4
:1046D000980000F0010010B1204601F02DFCA06A06
:1046E00000EE100A206B00EE900A30EE200A10EE69
:1046F000100AA062606A00EE100AA06A00EE900A3A
:1047000070EE200AE06A00EE100A30EE800A10EE29
:10471000100A606394F8980000F0100010B1204671
:1047200001F082FC204601F0AAFC204601F024FDA5
:1047300020696061606BA063E06AE063A069E0618A
:10474000206B2062606B00EE100ABDEC028B10BD86
:1047500070B52DED0A8B0446B0EE408AF0EE608A0B
:10476000B0EE419AF0EE619AB0EE42AAF0EE62AA83
:10477000B0EE43BAF0EE63BAB0EE44CAF0EE64CAEB
:104780000D46164619EE100AA06418EE900A6064F1
:1047900018EE100A20649FED1C0A10EE100A20602B
:1047A00019EE900A60601AEE100AA0601AEE900AE4
:1047B000E0609FED150A10EE100A20631BEE100A50
:1047C00020651BEE900A60651CEE100AA0651CEEC9
:1047D000900AE065A4F86050294604F16200FFF7F2
:1047E00023FE00208D3444F8010CE6720021E160C4
:1047F00021618D3CA12001559FED030A10EE100AA6
:104800006063BDEC0A8B70BD0000000010B52DED9B
:10481000068B3448007810B103285ED126E00122CF
:1048200011463148FDF7E4F91E2001F0EAFD0022AF
:1048300001212D48FDF7DCF92A480078401C294960
:10484000087000BF29480068006A20F4204027490A
:104850000968086225480068006A244909680862F6
:1048600000BF0C212148FEF74FF936E02048406890
:104870001F490968401A1F4908601F4809680160FC
:104880001C48006803F0CEF841EC1A0B9FED1B0B9F
:1048900053EC102B03F016F941EC190B9FED190B9B
:1048A00053EC102B02F066FF41EC180B02F024FFD2
:1048B00016490860084690ED000ADFED150A20EE63
:1048C000200ABCEEC00A10EE100A1249087000203F
:1048D000044908701049086000BF00BFBDEC068B9A
:1048E00010BD00005400002000140240F806002013
:1048F000DC0D0020580000206E0000209CC420B079
:104900007268A13F0000000000000040500000203D
:1049100000007A4484000020240C004000BF0120E5
:1049200001F06FFDFBE700004FF4FA7001F069FD44
:104930003A4801F06BF8FE2039490870EE204870C3
:10494000FF208874FF213648C17465E0012001F022
:1049500058FD3448FCF760F8304880EDBC0A01F09F
:104960002DF92E4800F0F8FF2C4801F0E7F82B480D
:1049700000F07EFF294890F8E80230B900231A467B
:1049800019461846FBF756FF08E02448B0F93C20CA
:10499000B0F91C1000231846FBF74CFF1F4890F895
:1049A000E80201280DD12048006850B901201B49B8
:1049B00081F8EB0281F8EC021B480068401C1A49A0
:1049C0000860164890F8E80238B90020134981F8C9
:1049D000EB0281F8EC0214490860012001F011FD9E
:1049E00014220F491148FBF77BFD14210F48FBF7F8
:1049F000EFFF0F480078012809D100200D49087009
:104A00000B4908700B4801780B48FBF7BDFD2822C5
:104A100009490A48FEF76AFF98E70000E40A002007
:104A2000D00A0020D80D002048000020980A00205D
:104A30001900002018000020700A0020180800202B
:104A400010B5FDF7E1F802F021FD012801D002F0D8
:104A500073FC10BD00B593B0302107A8FBF794FD9F
:104A6000142102A8FBF790FD00BF0020019025480B
:104A7000006840F08050234908600846006800F054
:104A80008050019000BF00BF00BF002001901E4871
:104A9000006840F440401C4908600846006800F483
:104AA0004040019000BF00BF092007904FF48030C4
:104AB000089001200C9002200D9041050E910621D6
:104AC0000F91A8211091022111910421129107A8A0
:104AD000FDF7BAFA08B1FBF7FFFF0F2002900220A2
:104AE0000390002004904FF4A05005904FF48050A4
:104AF0000690052102A8FDF767F908B1FBF7ECFF66
:104B000013B000BD40380240007000400348006808
:104B100040F47000014908607047000088ED00E033
:104B200010B50248FEF727F910BD0000200600204E
:104B300010B51D480078012802D002282ED11DE0B2
:104B40000C211A48FEF7B1FB1949086000BF17484D
:104B50000068006A20F4204014490968086213487C
:104B60000068006A40F4005010490968086200BFFC
:104B70000D480078401C0C4908700FE00C210B48D0
:104B8000FEF793FB0A4948600C210848FEF784F8B9
:104B900005480078401C0449087000BF00BF034866
:104BA000FEF7E9F810BD000054000020F8060020D0
:104BB000DC0D002010B502682D4B98420ED0B0F1EC
:104BC000804F0BD02B4B984208D02B4B984205D0EE
:104BD0002A4B984202D02A4B984203D122F070020D
:104BE0004B681A43224B984220D0B0F1804F1DD021
:104BF000204B98421AD0204B984217D01F4B984216
:104C000014D01F4B984211D01E4B98420ED01E4B11
:104C100098420BD01D4B984208D01D4B984205D0AE
:104C20001C4B984202D01C4B984203D122F4407294
:104C3000CB681A4322F080034C6943EA0402026005
:104C40008B68C3620B688362094B984202D00C4B9D
:104C5000984201D10B69036301234361036903F0A7
:104C600001031BB1036923F00103036110BD0000C0
:104C7000000001400004004000080040000C00401B
:104C80000004014000400140004401400048014050
:104C900000180040001C00400020004030B501F02A
:104CA0001F05012404FA05F3046A9C430462046AA4
:104CB00001F01F0502FA05F52C43046230BD30B542
:104CC0000C46816821F47F4142EA032525432943AC
:104CD000816030BD0A46816821F0700142F007030F
:104CE000194381607047000030B5026A056A25F0FB
:104CF000010505624368846924F0700424F003040C
:104D00000D682C4322F002028D682A43104DA84200
:104D100000D103E00F4DA84206D100BF22F00802E7
:104D2000CD682A4322F00402094DA84202D0094D61
:104D3000A84207D123F4807323F400734D692B43F9
:104D40008D692B43436084614D684563026230BDC9
:104D5000000001400004014030B5026A056A25F0F8
:104D6000100505624368846924F4E04424F4407427
:104D70000D6844EA052422F020028D6842EA0512FB
:104D8000124DA84200D103E0114DA84207D100BF47
:104D900022F08002CD6842EA051222F040020B4D5B
:104DA000A84202D00A4DA84209D123F4806323F41B
:104DB00000634D6943EA85038D6943EA85034360D7
:104DC00084614D688563026230BD000000000140CF
:104DD0000004014030B5026A056A25F48075056259
:104DE0004368C46924F0700424F003040D682C4364
:104DF00022F400728D6842EA0522124DA84200D1C9
:104E000003E0114DA84207D100BF22F40062CD6833
:104E100042EA052222F480620A4DA84202D00A4DDD
:104E2000A84209D123F4805323F400534D6943EA87
:104E300005138D6943EA05134360C4614D68C5637A
:104E4000026230BD000001400004014030B5036A39
:104E5000056A25F4805505624468C26922F4E0427F
:104E600022F440720D6842EA052223F400538D6853
:104E700043EA0533084DA84202D0084DA84204D1A8
:104E800024F480444D6944EA85144460C2614D684D
:104E90000564036230BD00000000014000040140D1
:104EA00030B50B461446026A056A25F00105056215
:104EB000816921F0F00141EA041122F00A021A434B
:104EC0008161026230BD000070B50C461546026A71
:104ED000066A26F0010606628169184EB04214D0B7
:104EE000B0F1804F11D0164EB0420ED0154EB042E8
:104EF0000BD0154EB04208D0144EB04205D0144E1F
:104F0000B04202D0134EB04201D1012600E000268B
:104F10001EB121F00301294301E041F0010121F01C
:104F2000F001F02606EA0316314322F00A0204F0EB
:104F30000A0632438161026270BD00000000014038
:104F40000004004000080040000C00400004014044
:104F5000004001400018004030B50B461446026A7C
:104F6000056A25F010050562816921F4704141EA66
:104F7000043122F0A00242EA03128161026230BDD4
:104F800070B50C461546026A066A26F010060662DF
:104F9000816921F4407141EA052121F470414FF407
:104FA000704606EA0336314322F0A002A02606EA44
:104FB000041632438161026270BD70B50C4615461D
:104FC000026A066A26F480760662C16921F003014E
:104FD000294321F0F001F02606EA0316314322F4BA
:104FE00020624FF4206606EA04263243C161026261
:104FF00070BD70B50C461546026A066A26F48056E6
:105000000662C16921F4407141EA052121F4704131
:105010004FF4704606EA0336314322F420424FF43F
:10502000204606EA04363243C161026270BD0000C8
:1050300010B50248FEF756F910BD0000D007002059
:1050400038B50025314800680068C0F30015002D10
:1050500057D02F480068401C2D4908602D48006833
:10506000006820F001002B490968086000BF00209B
:105070000090264800680068009024480068406856
:10508000009000BF00BF234800682349884205D92B
:105090004FF4001020494C3908601BE01D4800689F
:1050A0001E49884205D94FF400101B495039086049
:1050B00010E01848006819496039884205D94FF452
:1050C00000101649B839C86004E04FF400101349C5
:1050D000B83988600F4800684468C4F12800104956
:1050E000087014220F491048FBF7FAF901200F4904
:1050F000087008480068006840F001000549096828
:1051000008600248FEF7EEF838BD000018080020DD
:10511000380000206809002058640240B86002404E
:1051200018000020700A0020BC0A0020190000208E
:1051300070B50546AC6B0020E085E0842046FEF7A4
:10514000CFF870BD70B506460025B46B2068406985
:10515000C0F3C01594F84100212805D125B10020E5
:10516000E084204600F0FBF820684069C0F3801519
:1051700094F84200222805D125B10020E085204680
:1051800000F0A7F8606C40F0100060642046FEF765
:10519000A7F870BD70B50546AC6B2868006800F4D0
:1051A0008070002842D1E08500BF00BF21680C312B
:1051B00051E8001F21F4807021680C3141E80002A1
:1051C000002AF3D100BF00BF00BF2168143151E8AD
:1051D000001F21F001002168143141E80002002A7B
:1051E000F3D100BF00BF00BF2168143151E8001F98
:1051F00021F040002168143141E80002002AF3D177
:1052000000BF202084F84200206B01280ED100BF8F
:1052100000BF21680C3151E8001F21F01000216807
:105220000C3141E80002002AF3D100BF0020606386
:10523000206B012804D1A18D2046FEF750F802E032
:105240002046FEF769FB70BD70B50546AC6B0120CA
:105250006063206B012805D1A08D41082046FEF730
:105260003EF802E02046FEF758FB70BD70B50546DB
:10527000AC6B2868006800F48070F8B90020E08406
:1052800000BF00BF2168143151E8001F21F08000E9
:105290002168143141E80002002AF3D100BF00BFA9
:1052A00000BF21680C3151E8001F41F04000216827
:1052B0000C3141E80002002AF3D102E02046FEF75B
:1052C00073FB70BD70B50446A56B2846FEF76DFBF9
:1052D00070BD00BF00BF02680C3252E8002F22F4FC
:1052E000907102680C3242E80013002BF3D100BF2A
:1052F00000BF00BF0268143252E8002F22F0010103
:105300000268143242E80013002BF3D100BF016B96
:1053100001290ED100BF00BF02680C3252E8002FF5
:1053200022F0100102680C3242E80013002BF3D186
:1053300000BF202180F8421000210163704710B5A2
:1053400004462068C06820F040002168C860202022
:1053500084F841002046FEF727FB002010BD00BF67
:1053600000BF02680C3252E8002F22F0C001026830
:105370000C3242E80013002BF3D100BF202180F84B
:1053800041107047F8B5044694F84200222875D1C0
:10539000A068B0F5805F0CD1206950B90025A66ADD
:1053A00020684068C0F308003080A06A801CA062BA
:1053B00015E0A56A0026A068B0F5805F03D0A0685C
:1053C00028B9206918B920684068287004E020686E
:1053D000406800F07F002870A06A401CA062E08D49
:1053E000401E80B2E085002846D12068C06820F0C9
:1053F00020002168C8602068C06820F4807021689F
:10540000C8602068406920F00100216848612020C0
:1054100084F8420000206063206B012826D1002020
:10542000206300BF00BF21680C3151E8001F21F04C
:10543000100021680C3141E80002002AF3D100BFBE
:105440002068006800F0100010280AD100BF00207A
:10545000009020680068009020684068009000BFBD
:1054600000BFA18D2046FDF73AFF02E02046FEF77F
:1054700053FA0020F8BD01E00020FBE70220F9E725
:105480002DE9F84F04462068006920F44050E16897
:105490000843216808612169A068084361690843DD
:1054A000E169084300902068C06849F20C618843B4
:1054B000009908432168C8602068406920F4407062
:1054C000A16908432168486176492068884203D071
:1054D00075492068884203D1FCF74EFD814602E001
:1054E000FCF73AFD8146E069B0F5004F6CD102202F
:1054F0006168A0FB015003461920A9FB007001461A
:105500002A463846FAF775FF6421B0FBF1F04FEAFE
:10551000001A02206168A0FB01510B461920A9FB6B
:1055200000712A463846FAF764FF83460220616814
:10553000A0FB015003461920A9FB00712A463846FA
:10554000FAF757FF6421B0FBF1F000EBC00101EB6B
:105550000010ABEB8000322101EBC0006421B0FBF6
:10556000F1F000F0F8000AEB400A02206168A0FBAD
:10557000015003461920A9FB007001462A4638460F
:10558000FAF737FF834602206168A0FB015003460B
:105590001920A9FB00712A463846FAF72AFF642130
:1055A000B0FBF1F000EBC00101EB0010ABEB8000B1
:1055B000322101EBC0006421B0FBF1F000F00700E4
:1055C0005044216888606AE004206168A0FB0150B3
:1055D00003461920A9FB007001462A463846FAF70F
:1055E00008FF824604206168A0FB01500346192091
:1055F000A9FB007001462A463846FAF7FAFE6421F4
:10560000B0FBF1F000EBC00101EB0010AAEB800051
:10561000322101EB00106421B0FBF1F000F0F00A40
:1056200004206168A0FB017003461920A9FB00510A
:105630003A462846FAF7DDFE6421B0FBF1F00AEBAA
:10564000001A04206168A0FB01510B461920A9FB38
:1056500000712A463846FAF7CCFE8346042061687A
:10566000A0FB015003461920A9FB007001462A4601
:105670003846FAF7BEFE6421B0FBF1F000EBC00142
:1056800001EB0010ABEB8000322101EB0010642134
:10569000B0FBF1F000F00F00504421688860BDE8D5
:1056A000F88F0000001001400014014077B581B070
:1056B000044615460298A062A58500206064222059
:1056C00084F842002848E16BC8632848E16B08640D
:1056D0002748E16BC8640020E16B086502AE3268C0
:1056E0002368191D2B46E06BFCF722F900BF002050
:1056F000009020680068009020684068009000BF1B
:1057000000BF206970B100BF00BF21680C3151E8B3
:10571000001F41F4807021680C3141E80002002A2A
:10572000F3D100BF00BF00BF2168143151E8001F52
:1057300041F001002168143141E80002002AF3D150
:1057400000BF00BF00BF2168143151E8001F41F0C5
:1057500040002168143141E80002002AF3D100BF63
:10576000002004B070BD00009551000849520008A7
:1057700045510008014691F84100212828D1886848
:10578000B0F5805F0BD1086948B90A6A1088C0F388
:1057900008000B685860086A801C086205E00B6A04
:1057A000581C086218780B685860C88C401E80B27C
:1057B000C88458B90868C06820F080000B68D860B9
:1057C0000868C06840F040000B68D860002070474F
:1057D0000220FCE710B50248FDF784FD10BD000073
:1057E0006008002000BFFEE702480068C0F3022006
:1057F000704700000CED00E010B5002804DB0A073C
:10580000130E054A135406E00A07140E034A00F06B
:105810000F031B1FD45410BD00E400E018ED00E09E
:105820002DED020B019820F0004001909DED000B42
:1058300002B0704700B58BB001200990002007909E
:10584000012008900020019002900390049006909F
:10585000059001A90548FBF7FBF90448FBF731FE69
:1058600002210248FBF739F90BB000BDF805002012
:1058700010B5044694F8EB0210B90021A18731E07D
:1058800094F8EB02012803D14FF47A71A18729E043
:1058900094F8EB02022825D194ED0C1AF0EE410A9F
:1058A00094ED0B1AB0EE410A04F5CA70FEF7E8FD5C
:1058B00094ED720A84ED0A0A94ED0A1AF0EE410A98
:1058C00094ED091AB0EE410A04F23E20FEF7D8FD2D
:1058D000D4F8720200EE100ABDEEC00A10EE100AF3
:1058E00001B2A18794F8EC0210B90020A08331E046
:1058F00094F8EC02012803D14FF47A70A08329E0D8
:1059000094F8EC02022825D194ED041AF0EE410A35
:1059100094ED031AB0EE410A04F14000FEF7B0FD29
:1059200094ED1D0A84ED020A94ED021AF0EE410A8C
:1059300094ED011AB0EE410A04F1EA00FEF7A0FD71
:10594000D4F81E0100EE100ABDEEC00A10EE100AD7
:1059500000B2A08310BD000000B9704701680A883A
:10596000816902EB413100EE101AB8EEC00AD0EDA9
:10597000050A30EE600ADFED220A20EE200A80EDF3
:10598000030A0168B1F9021000EE101AB8EEC00A5D
:10599000DFED1C0A20EE200AF7EE000A20EE200AB6
:1059A000DFED190A80EE201A80ED011A016A0A88DB
:1059B000816B02EB413100EE101AB8EEC00AD0ED57
:1059C0000D0A30EE600ADFED0E0A20EE200A80EDAF
:1059D0000B0A016AB1F9021000EE101AB8EEC00A03
:1059E000DFED080A20EE200AF7EE000A20EE200A7A
:1059F000DFED050A80EE201A80ED091A00BFACE742
:105A0000C2B8B2375077D63D0000104210B50446F8
:105A1000002084F8E80284F8E90284F8EA0200F041
:105A20000FFC206200F010FC206011220421DFED49
:105A30003D4A9FED3D4ADFED3B3A9FED3A3ADFEDBF
:105A4000392A9FED382AF0EE001A9FED361ADFED65
:105A5000350A9FED360A04F14000FEF779FE112267
:105A60000521DFED304A9FED304ADFED2E3A9FED04
:105A70002D3ADFED2C2A9FED2B2ADFED2D1A9FED1D
:105A8000291ADFED280A9FED2B0A04F1EA00FEF740
:105A90005FFE11220421DFED234A9FED234ADFED53
:105AA000213A9FED203ADFED1F2A9FED1E2AF0EEEE
:105AB000081A9FED1C1ADFED1B0A9FED1C0A04F566
:105AC000CA70FEF745FE11220521DFED164A9FED53
:105AD000164ADFED143A9FED133ADFED122A9FEDDF
